:03000000020DD618
:0C0DD60078FFE4F6D8FD758171020BE097
:0A47F600FFFFFFFFFFB7FF5AA55FAA
:1002E300200C0302049EE5D220E50302049E53D2B0
:1002F300DFAFD3EF75F004A4795FF7E5F019F7E505
:10030300D4540C1313543FFF785EE6F6EF0846F619
:10031300C20C782AE6FF701D785EE6FC08E6FD78DD
:1003230044A60408A6057841A60408A605E4785166
:10033300F608F6802A785EE6FC08E6FDC378429666
:10034300EC189650028013D3ED784596EC1896403E
:100353000E785EE6FC08E6FD7844A60408A6057858
:100363005EE6FC08E6785226F618EC36F6EFC39400
:10037300055006782A0602049EE4782AF6C37852CA
:10038300E6794597FF18E61997FEF608EFF67841E8
:10039300E6FC08E6FDC3EF9D7852F6EE9C18F6E600
:1003A300FE08E67802CEC313CE13D8F97940F7EEF0
:1003B30019F7784AE6B40800400302049E9003C785
:1003C300F82828730203DF02040602041502043B23
:1003D30002044A020459020475020489784A760128
:1003E300783FE6FE08E6FF7828EEF6FE08EFF6C350
:1003F3009403EE9400403F74FD26F61874FF36F61E
:1004030002049B784A7602783FE6FE08E6FF7836D8
:10041300806D784A7603783FE6FE08E6FF7869EE5A
:10042300F6FE08EFF6C39404EE9400400974FC262C
:10043300F61874FF36F68060784A7604783FE6FE55
:1004430008E6FF784D801C784A7605783FE6FE087B
:10045300E6FF7831800D784A7606783FE6FE08E6B7
:10046300FF784FA60608A607E5D554F84404F5D54A
:100473008029784A7607783FE6FE08E6FF783CA6AF
:100483000608A6078012E4784AF6783FE6FE08E6F7
:10049300FF7834A60608A60753D5F8300C030205E7
:1004A30022784AE6B40800506A9004B3F828287307
:1004B3000204CB0204D00204DA0204E40204EE02D2
:1004C30004F802050202050C53D2B0804DE5D25464
:1004D300B04402F5D28043E5D254B04403F5D28050
:1004E30039E5D254B04404F5D2802FE5D254B04458
:1004F30006F5D28025E5D254B04407F5D2801BE53A
:10050300D254B04408F5D28011E5D254B0440BF56F
:10051300D2800753D2B0E4784AF643D240D20C22B9
:10000E002011030202DC2002030202DC300D030287
:10001E0002DC300F030202DC3005030202DC300387
:10002E00030202DC7848E6FF700EC37829E6943EA0
:10003E0018E694024002D2103010030202B4300BC4
:10004E000302026EEF70347828E6FE08E6FF4E607B
:10005E000DC3EF949FEE9401500478488023C3EFB4
:10006E00949FEE94014022EF943EEE9402501A7843
:10007E0048760275BB0175BACD800E7848E6B40499
:10008E0008760175BB0075BA427848E624FE6068B2
:10009E001470030201BC240260030202AD7869E60B
:1000AE00FE08E6FFD39418EE94004010E5BA45BB67
:1000BE006026E5BA15BA702015BB801CC3EF9410EC
:1000CE00EE94005013C3E5BA94FCE5BB94035008BC
:1000DE0005BAE5BA700205BBC37829E694A718E6FF
:1000EE00940150030202AD7848760275BB0175BAD1
:1000FE00CDE47826F60202AD7869E6FE08E6FFD377
:10010E00944CEE94004010E5BA45BB6026E5BA1556
:10011E00BA702015BB801CC3EF9448EE94005013A8
:10012E00C3E5BA94FCE5BB9403500805BAE5BA7072
:10013E000205BBC37829E6944A18E69402500302DE
:10014E0002AD78487603786B760208764AE4785AE0
:10015E00F608F67864F608F67856F6D3786AE694DA
:10016E003F18E694005008786CE616187001167861
:10017E0069E6FE08E6FFD39434EE94005008786CDE
:10018E00E61618700116D3EF942AEE9400500878F4
:10019E006CE61618700116D3EF9422EE940040030D
:1001AE000202AD786CE616187001160202AD786B7D
:1001BE00E6FE08E6FF7828E6FC08E6FDD39FEC9EF7
:1001CE004010E5BA45BB602CE5BA15BA702615BBD2
:1001DE008022EF24ECFFEE34FFFEC3ED9FEC9E5029
:1001EE0013C3E5BA94FCE5BB9403500805BAE5BA0F
:1001FE00700205BB785A0806E6187001068606C31B
:10020E009418EE94154011E4785AF608F6786CE6D8
:10021E001618700116785606C3786AE6940318E627
:10022E009400501C786506E618700106C37865E6E2
:10023E00945818E694024067E4F608F6D210805FF0
:10024E00C37865E6940A18E69400400C0874F62606
:10025E00F61874FF36F68047E47864F608F6803FA9
:10026E00784876047869E6FE08E6FFD39418EE9493
:10027E00004010E5BA45BB6026E5BA15BA702015E8
:10028E00BB801CC3EF9410EE94005013C3E5BA94D8
:10029E00FCE5BB9403500805BAE5BA700205BB75C0
:1002AE00C90443C8802253C9FB53C87FD37829E6BB
:1002BE00941B18E694025011783A06E6C394144043
:1002CE0013E4F6C2107848F622E4783AF62253C9BF
:0502DE00FB53C87F2264
:1008E00030084D200503300A22D283B2847853E6C3
:1008F000640160067601E47859F6785906E6C394F7
:100900001850030209CCE4F6C20822200E028052DD
:100910007853E6640360067603E47860F678600650
:10092000E6C3940250030209CCE4F6D283B28422D7
:10093000200D09200506200F0330031DD283B28449
:100940007853E6640160067601E47859F678590632
:10095000E6C394184076E4F6223011682010033084
:10096000010978537602D284C283227848E6FF6474
:10097000016004EFB4041C7853E664046006760456
:10098000E47860F6786006E6C394104006E4F6D298
:1009900084B2837848E6B4021C7853E664056006A6
:1009A0007605E47860F6786006E6C394044006E4D1
:1009B000F6D284B2837848E6B4031178537602D233
:0D09C00083C28422E47853F6D283D28422CD
:10052300200803020751300503020751300A030272
:1005330007517843E624FE70030205F814700302A2
:1005430006A42402600302075143B08030006EC248
:10055300007828E6FE08E6FFD3949FEE940140114D
:10056300D3EF94C8EE9401500875AB0175AA7D8052
:100573004CD3EF94C8EE94014011D3EF94F2EE9470
:1005830001500875AB0175AA5C8032D3EF94F2EE8B
:1005930094014011D3EF941BEE9402500875AB0104
:1005A30075AA408018D3EF941BEE9402400FD3EF4B
:1005B3009445EE9402500675AB0175AA28C37929B8
:1005C300E7784E96FF19E71896FED3EF94CFEE9493
:1005D300005011C3E5AA9416E5AB94034003020748
:1005E30054020730D3E5AA9402E5AB94005003020A
:1005F300075402074443B08030006EC2007828E6F7
:10060300FE08E6FFD3949FEE94014011D3EF94C804
:10061300EE9401500875AB0275AA3B804CD3EF945E
:10062300C8EE94014011D3EF94F2EE940150087593
:10063300AB0275AA0A8032D3EF94F2EE9401401113
:10064300D3EF941BEE9402500875AB0175AAE080BA
:1006530018D3EF941BEE9402400FD3EF9445EE941E
:1006630002500675AB0175AABCC37929E7784E968B
:10067300FF19E71896FED3EF9437EE94015011C398
:10068300E5AA9416E5AB940340030207540207302E
:10069300D3E5AA9402E5AB94005003020754020782
:1006A3004443B080300065C2007828E6FE08E6FFC8
:1006B300D3949FEE94014011D3EF94C8EE9401506C
:1006C3000875AB0275AAFA8043D3EF94C8EE940180
:1006D3004011D3EF94F2EE9401500875AB0275AA62
:1006E300B88029D3EF94F2EE94014011D3EF941B19
:1006F300EE9402500875AB0275AA80800FD3EF9475
:100703001BEE9402400675AB0275AA51C37929E723
:10071300784E96FF19E71896FED3EF949FEE940157
:100723005014C3E5AA9416E5AB9403502474022530
:10073300AAF5AAE48013D3E5AA9402E5AB9400409A
:100743001074FE25AAF5AA74FF35ABF5AB2253B09E
:020753007F2203
:100D950075F91C75F11A75801C75FA2BE4F5F2F5D9
:0A0DA5009075FB01F5F375A0012223
:100DC500758CF8758A3075890575E720D28CD2A99E
:010DD50022FB
:100D4E0075B10475B06075A20375A12075AB017500
:100D5E00AA9075C93475C86175B70375B6FFE4F509
:040D6E00BBF5BA22F5
:100D280075D6E0759FD4759E02E4F5D575D44075E7
:100D3800D90775D280000000000043D980E5D9208A
:060D4800E7FB43D9402245
:100BE00075865A120D95120DC5120D4E120D28D292
:100BF000AF75865A3006FAC2061202E3786306E63B
:100C0000C39405400BE4F6120CBA120B46120D7297
:100C1000783006E6C3943F4005E4F61208E0782EEB
:100C200006E6C394324011E4F6120C741207551212
:100C30000A9812000E120523782F06E6C394FA4094
:100C400005E4F61209CD0509E50970020508C3940B
:100C5000D0E5089407409AE4F508F509786BE6FFBB
:100C6000120CFC786CE6FF120CFC7856E6FF120CB6
:040C7000FC020BF186
:03000B00020DE201
:090DE200758CF8758A30D20632D6
:100CBA00201115308037786D06E6C394054032E47A
:100CCA00F6D211C202C20822208022786D06E6C33B
:100CDA009405401DE4F6C211C2107848F6C20378A2
:100CEA0064F608F6785AF608F6783AF622E4786D49
:020CFA00F622E0
:100C7400301139200D36C37837E694FD18E6940117
:100C84004013784906E694044006E4F6D202D20DF5
:100C9400E47862F62220020F786206E6C3940440E8
:100CA40006E4F6D202C20DE47849F622E47849F665
:060CB4007862F6C20D2279
:100755003005030208DF7831E6FE08E6FFD394058D
:10076500EE94004008EF94FCEE94034011782706C0
:10077500E6C3941E400EE4F6D205C208800678272B
:10078500E66001167867E67074D37832E6947518DA
:10079500E694005004786776017831E6FE08E6FFB6
:1007A500D39475EE9400400BD3EF94B3EE940050C0
:1007B50002806FD3EF94B3EE9400400BD3EF9423F4
:1007C500EE940250028073D3EF9423EE9402400B13
:1007D500D3EF9453EE940250028077D3EF9453EE07
:1007E5009402400BD3EF9488EE94025002807BD3A1
:1007F500EF9488EE94025003020882807C7854E6D8
:10080500FE08E6FFD39455EE940050047867760110
:10081500D3EF9495EE9400400FD3EF94B3EE94008C
:100825005006786776028055D3EF94D3EE94004056
:100835000FD3EF9403EE9402500678677603803D5C
:10084500D3EF9443EE9402400FD3EF9433EE94022A
:100855005006786776048025D3EF9453EE940240D2
:100865000FD3EF9468EE9402500678677605800DF5
:10087500D3EF94A8EE94024004786776067831E6C3
:10088500FE08E6FF7855667003EE18666014783347
:1008950006E6C39404400FE4F67854A60608A607B6
:1008A5008004E47833F67867E6FF60086405600441
:1008B500EFB4060CD20FEFB40603D20A22C20A2205
:1008C500C20FC20A7867E6FF64046004EFB402024F
:0B08D500D20B7867E6B40302C20B22CE
:100A980030112EC37829E6945018E69402401DD3ED
:100AA800786AE6941418E694005011782B06E6C389
:100AB80094055003020B45E4F6D21022E4782BF695
:100AC80022E4782BF6200E2F7828E6FE08E6FFC3EE
:100AD800949FEE94014018D3EF94C8EE9401500F00
:100AE800782C06E6C3940A402EE4F6D20E802878C5
:100AF8002CE66023168020C37829E694FF18E69434
:100B080001400E782C06E6940A400CE4F6C20E80EA
:100B180006782CE6600116200423D37829E6949FF2
:100B280018E694015010782D06E6C3940A400EE4A6
:0E0B3800F6D204C20822782DE66002E4F6220E
:1009CD00301003020A87785D06E618700106785C20
:1009DD00E6FE08E6FFC39460EE94544002D201E4B3
:1009ED00FCFD7BA07A8CF9F8D3120DAF5008E4789A
:1009FD005CF608F6D2107848E6FFB4011D78380889
:100A0D0006E6187001068604C39420EC941C402859
:100A1D00E47838F608F6D203801ED37839E6944888
:100A2D0018E69400400C0874B826F61874FF36F6D4
:100A3D008006E47838F608F6EFB404227867E6B459
:100A4D00041C786E0806E6187001068606C394200D
:100A5D00EE941C4035E4786EF608F6D20322D37876
:100A6D006FE6944818E69400400B0874B826F61803
:100A7D0074FF36F622E4786E800DE4786EF608F693
:0B0A8D007838F608F6785CF608F622D0
:100B46005380FB53F9E343F10CE4784BF620810420
:100B5600E64401F6208306784BE64402F620840636
:100B6600784BE64404F6783EE6FF784BE6FE6F786F
:100B76004CF6EF6E604A785806E6C394064051E498
:100B8600F6783EA606784CE6FF30E00E208104D2C9
:100B9600098007C209300702C207EF30E117208338
:100BA60014300811D2007843E6C39403500306803C
:100BB60004E47843F6784CE630E21520841280107F
:100BC6007858E6C39402400416168004E47858F672
:0A0BD60043800443F91C53F1E722A9
:100D720030091B20071C786806E6C394964013E4EA
:100D8200F6D207300803C20822D208C20422E4784D
:030D920068F622DE
:06000300E4FF0FBFA2FCA8
:0100090022D4
:020CFC00AE0741
:100CFE00D295C295120003C2AFE4FDEE30E004D2ED
:100D0E00958002C295120003EEC313FE0DBD08EBD3
:0A0D1E00D295D2AF120003020003C9
:100DAF00EB9FF5F0EA9E42F0E99D42F0EC6480C8BB
:060DBF0064809845F0225B
:00000001FF
